:1000000057C0FECFFDCFFCCFFBCFFACFF9CFF8CF53
:10001000F7CFF6CFF5CFF4CFF3CFF2CFF1CF434DFB
:10002000443A52554E0A0000545950453A706F7781
:1000300065727368656C6C20225365742D436C691E
:1000400070626F617264202D56616C75652028475F
:1000500065742D4E657449504164647265737320F4
:100060002D4164647265737346616D696C792049D2
:10007000507634292E4950416464726573735B3045
:100080005D220A004B45593A454E5445520A00003C
:10009000414354494F4E3A4745545F434C49500AF7
:1000A0000000545950453A6E6F74657061640A00DF
:1000B000F894EE27ECBBE5BF8DE0A2E0BB27ED9303
:1000C0008A95E9F780E092E0A0E6ED930197E9F7E1
:1000D000E0E0E1BBE2BBE3BBEFE5EDBFE2E0EEBF9A
:1000E000C0EED0E043C0AA931A93C0988AD010E023
:1000F000183060F4E981E17011F0C09A01C0C09835
:10010000E981E695E9837DD01F5FF2CFC09A79D06F
:10011000188110C0BA93AA93E881F981E491E03084
:1001200049F0E881F9813196E883F9833197A49108
:10013000DADFF2CF2296089590D000E0B199FECF99
:100140008BE88A95F1F7B19B02C0E0E00CC059D072
:1001500010E0183030F40695B199006852D01F5F56
:10016000F8CF4FD0E02F099119910895B89AC09A0D
:10017000B998BC98C49A4AD0A4ECB9E059D000E030
:1001800010E00032E0E01E0724F456D00F5F1F4F4E
:10019000F8CF00E010E00E31E0E01E07A4F4219754
:1001A000CBDFE883A881AA3011F0AD3019F444D038
:1001B000219609C0F801E052FF4FA881A083219643
:1001C0000F5F1F4FE8CFB4991AC0A2E3B0E03BD055
:1001D000B49915C0AEE1B0E09DDFA4EFB1E033D03B
:1001E000A2EAB0E097DFA4E6B0E02DD0A4E8B0E04A
:1001F00091DF0CD0A8E8B3E11BD0B49BFECFE3CFD6
:10020000FFCF80ED90E00197F1F70895A8EEB3E0FD
:100210001AD0AEE1B0E07EDFA4EFB1E014D0A8E2E6
:10022000B0E078DFA4EFB1E00ED0A4E8B0E072CF88
:100230000AD0A0E9B0E06ECFA0EEB0E0A00FB11FF1
:10024000E0E0EC930895109639F0A89580ED97E0E2
:100250000197F1F71197C9F708951A930A93089532
:00000001FF
