:0A000000C0C0FECFFDCFFCCFFBCF48
:10000A00FACFF9CFF8CFF7CFF6CFF5CFF4CFF3CFBA
:10001A00F2CFF1CF434D443A52554E0A00004B45B8
:10002A00593A454E5445520A000044454255473A0A
:10003A00202A2A2A20424F4F54494E472055502001
:10004A002A2A2A0A0044454255473A50686173658C
:10005A002031202D2047657474696E672049500A43
:10006A0000545950453A706F7765727368656C6CC5
:10007A0020225365742D436C6970626F617264202B
:10008A002D56616C756520284765742D4E65744937
:10009A005041646472657373202D416464726573A0
:1000AA007346616D696C792049507634292E49501E
:1000BA00416464726573735B305D220A0041435484
:1000CA00494F4E3A4745545F434C49500A0044450C
:1000DA004255473A2049502053617665642E20459F
:1000EA006E746572696E672050686173652032208C
:1000FA00284C6F6F70292E0A0044454255473A42F0
:10010A007574746F6E2050726573736564210A008A
:10011A00545950453A6E6F74657061640A005459B7
:10012A0050453A596F75722049502069733A200038
:10013A0044454255473A446F6E6520547970696E5A
:10014A00672E2052656C6561736520427574746F01
:10015A006E2E0A0044454255473A427574746F6ED2
:10016A002052656C65617365642E205761697469F4
:10017A006E672E2E2E0A0000F894EE27ECBBE5BF20
:10018A008DE0A2E0BB27ED938A95E9F780E092E043
:10019A00A0E6ED930197E9F7E0E0E1BBE2BBE3BB40
:1001AA00EFE5EDBFE2E0EEBFC0EED0E052C0AA93A9
:1001BA001A93C098BCD010E0183060F4E981E1705D
:1001CA0011F0C09A01C0C098E981E695E983AFD0E1
:1001DA001F5FF2CFC09AABD018811EC0BA93AA9300
:1001EA00E881F981E491E03049F0E881F9813196BA
:1001FA00E883F9833197A491DADFF2CF0DC0BA937D
:10020A00AA93A881B981EC91E03031F0ED91A883ED
:10021A00B983AE2FCCDFF5CF22960895A6D000E0A1
:10022A00B199FECF80ED90E00197F1F7B19B02C042
:10023A00E0E00CC07CD010E0183030F40695B1999B
:10024A00006875D01F5FF8CF72D0E02F099119911D
:10025A000895B89AC09AB998BC98C49A6DD0A4E384
:10026A00B0E0BCDFAFE4B0E06AD0ABE6B0E0B6DF46
:10027A0063D0A8E2B0E0B2DFA8EBBBE06CD0A7EC99
:10028A00B0E0ACDF00E010E00332E0E01E0724F447
:10029A005BD00F5F1F4FF8CF00E010E00E31E0E0B7
:1002AA001E07A4F42197BADFE883A881AA3011F0C7
:1002BA00AD3019F449D0219609C0F801E052FF4F38
:1002CA00A881A08321960F5F1F4FE8CFA8EDB0E069
:1002DA0085DFB4992AC0A2E3B0E03DD0B49925C025
:1002EA00A3E0B1E02CD0AAE1B1E078DFA4E6B0E067
:1002FA0032D0A8E2B0E072DFA8EEB3E02CD0A8E2D8
:10030A00B1E06CDFA0EEB0E07ADFADE4B0E066DF2A
:10031A00AAE3B1E063DFB49904C0AAE0B0E01BD05D
:10032A00FACFAEE5B1E05ADF07D0D3CFFFCF80EAEC
:10033A0091E00197F1F70895A4EFB1E00CC04EDF08
:10034A00AEE1B0E04BDFF8CFA0EEB0E0A00FB11FF6
:10035A00E0E0EC930895109639F0A89580ED97E0C7
:10036A000197F1F71197C9F708951A930A93089517
:00000001FF
